:030000000209A64C
:0C09A600787FE4F6D8FD7581120208E5A8
:1008000000000001020305040302010300050601C4
:1008100002030701050600000102030504030201AB
:100820000300050601020307010506060000010595
:100830000105010105010501010501050101020193
:100840000301010501050101010501050101050182
:100850000501010107050603050701050105010161
:100860000105010501010501050101010201030165
:10087000010201030101020103010100000005055D
:100880000105020503050500010002000403020141
:100890000005010503050105020501050305010524
:1008A00005050105020503050506010602F2F3F53B
:1008B000F5F6F7F8F9F9FAFAFBFBFCFCFCFDFDFD97
:1008C000FDFEFEFEFEFEFEFEFF42C117B6D0D1B613
:1008D00021E18CD868E95B8FEE446BB4F42D477747
:0508E000A2B6DAFA16D1
:020933008F0A29
:10093500E4F50BE50BC3950A5039E4F50FF50EF513
:100945000DF50CE47F807E0CFDFCAB0FAA0EA90D06
:10095500A80CC312097B5017E50F2401F50FE435E8
:100965000EF50EE4350DF50DE4350CF50C80D405CA
:050975000B80C0C28CE4
:01097A00225A
:0D098C0085118C85128AD28CAF10020933C0
:1008E500758901D2AFD2A9D2A8D3E508942C74801A
:1008F50094815039E4F508E5089008019375F007EF
:10090500A4FFE508900800932F14F5099008AD930E
:10091500F511E5099008C993F512E50890080293C9
:0D092500F51074032508F50812098C80CA2E
:0109320022A2
:03000B000209994E
:0D099900C28CB2A585118C85128AD28C32D9
:10097B00EB9FF5F0EA9E42F0E99D42F0E89C45F0D2
:01098B002249
:00000001FF
